01#BPA#2016050000000000011111SECRETARIA MUNICIPAL DE SAÚDEM3.96.95   
027188447201605223293001010101020015000000001EXT
022687151201605223293001020101020058000000001EXT
022687151201605322245001030101030010000000001EXT
022687151201605322245001040214010015000000001EXT
022687151201605322250001050214010015000000001EXT
022687259201605322250001060214010015000000001EXT
027188447201605322250001070214010015000000001EXT
022687151201605223293001080301010030052000001EXT
023006069201605223565001090301010030000000001EXT
022687151201605223565001100301010030001000001EXT
022687151201605223565001110301010030008000001EXT
022687151201605223565001120301010030011000001EXT
022687151201605223565001130301010030014000001EXT
022687151201605223565001140301010030016000001EXT
027188447201605223565001150301010030018000001EXT
022687151201605223565001160301010030019000001EXT
022687186201605223565001170301010030019000001EXT
023006069201605223565001180301010030020000001EXT
022687151201605223565001190301010030029000001EXT
022687151201605223565001200301010030033000001EXT
022687151201605223565002010301010030034000001EXT
022687151201605223565002020301010030036000001EXT
022687151201605223565002030301010030039000001EXT
022687151201605223565002040301010030041000001EXT
022687151201605223565002050301010030042000001EXT
022687151201605223565002060301010030043000001EXT
022687151201605223565002070301010030044000001EXT
022687151201605223565002080301010030046000001EXT
022687186201605223565002090301010030047000001EXT
022687151201605223565002100301010030050000001EXT
023006069201605223565002110301010030050000001EXT
022687151201605223565002120301010030054000001EXT
022687151201605223565002130301010030056000001EXT
022687151201605223565002140301010030060000001EXT
022687151201605223565002150301010030061000001EXT
022687151201605223565002160301010030064000001EXT
022687151201605223565002170301010030066000001EXT
022687151201605223565002180301010030070000001EXT
023006069201605223565002190301010030070000001EXT
022687151201605223565002200301010030071000001EXT
022687208201605223565003010301010030080000001EXT
022821958201605225142003020301010064002000001EXT
022821958201605225142003030301010064003000001EXT
022821958201605225142003040301010064006000001EXT
022821958201605225142003050301010064008000001EXT
027188447201605225142003060301010064008000001EXT
022821958201605225142003070301010064009000001EXT
022821958201605225142003080301010064010000001EXT
022821958201605225142003090301010064011000001EXT
027188447201605225142003100301010064013000001EXT
022821958201605225142003110301010064016000001EXT
022821958201605225142003120301010064019000001EXT
027188447201605225142003130301010064020000001EXT
022821958201605225142003140301010064021000001EXT
022821958201605225142003150301010064022000001EXT
022821958201605225142003160301010064027000001EXT
027188447201605225142003170301010064028000001EXT
022821958201605225142003180301010064031000001EXT
022821958201605225142003190301010064035000001EXT
022821958201605225142003200301010064036000001EXT
022687194201605225142004010301010064050000001EXT
027188447201605225142004020301010064051000001EXT
022821958201605225142004030301010064053000001EXT
022821958201605225142004040301010064054000001EXT
027188447201605225142004050301010064054000001EXT
022821958201605225142004060301010064058000001EXT
022821958201605225142004070301010064060000001EXT
022821958201605225142004080301010064061000001EXT
022821958201605225142004090301010064062000001EXT
027188447201605225142004100301010064062000001EXT
022821958201605225142004110301010064064000001EXT
027188447201605225142004120301010064064000001EXT
022821958201605225142004130301010064065000001EXT
022821958201605225142004140301010064066000001EXT
022821958201605225142004150301010064067000001EXT
027188447201605225142004160301010064067000001EXT
027188447201605225142004170301010064068000001EXT
027188447201605225142004180301010064071000001EXT
027188447201605225142004190301010064074000001EXT
027188447201605225142004200301010064080000001EXT
027188447201605225142005010301010064085000001EXT
022821958201605225142005020301010064086000001EXT
022821958201605225142005030301010064087000001EXT
022687208201605223565005040301010080000000001EXT
022687186201605223565005050301010080002000001EXT
022687186201605223565005060301010080003000001EXT
023006069201605223565005070301010080022000001EXT
023006069201605223565005080301010080035000001EXT
022821958201605223565005090301010080052000001EXT
023006069201605223565005100301010110018000001EXT
027188447201605223565005110301010110020000001EXT
027188447201605223565005120301010110028000001EXT
022687186201605223565005130301010110032000001EXT
027188447201605223565005140301010110032000001EXT
023006069201605223565005150301010110034000001EXT
022687259201605223565005160301010110035000001EXT
022687151201605225142005170301010110019000001EXT
027188447201605225142005180301010110022000001EXT
027188447201605225142005190301010110023000001EXT
022687151201605225142005200301010110024000001EXT
027188447201605225142006010301010110025000001EXT
027188447201605225142006020301010110027000001EXT
027188447201605225142006030301010110028000001EXT
027188447201605225142006040301010110031000001EXT
027188447201605225142006050301010110033000001EXT
027188447201605225142006060301010110036000001EXT
022821958201605225142006070301010129019000001EXT
022687151201605225142006080301010129025000001EXT
027188447201605223293006090301010153001000001EXT
027188447201605223293006100301010153004000001EXT
022687151201605223293006110301010153005000001EXT
027188447201605223293006120301010153006000001EXT
022687151201605223293006130301010153007000001EXT
027188447201605223293006140301010153007000001EXT
022687151201605223293006150301010153008000001EXT
027188447201605223293006160301010153008000001EXT
022687151201605223293006170301010153014000001EXT
027188447201605223293006180301010153017000001EXT
022687151201605223293006190301010153018000001EXT
027188447201605223293006200301010153018000001EXT
022687151201605223293007010301010153020000001EXT
022687151201605223293007020301010153021000001EXT
027188447201605223293007030301010153026000001EXT
027188447201605223293007040301010153027000001EXT
022687151201605223293007050301010153029000001EXT
027188447201605223293007060301010153038000001EXT
027188447201605223293007070301010153040000001EXT
022687151201605223293007080301010153041000001EXT
027188447201605223293007090301010153041000001EXT
027188447201605223293007100301010153046000001EXT
022687151201605223293007110301010153050000001EXT
022687151201605223293007120301010153051000001EXT
022687151201605223293007130301010153052000001EXT
027188447201605223293007140301010153055000001EXT
022687151201605322425007150301010153009000001EXT
022687259201605322250007160301050112000000001EXT
022687151201605223565007170301100020000000001EXT
022821958201605223565007180301100020000000001EXT
022687178201605322250007190301100020000000001EXT
022687208201605322250007200301100020000000001EXT
022687259201605223565008010301100039000000001EXT
022687178201605322250008020301100039000000001EXT
022687151201605322245008030301100101000000001EXT
022687208201605322250008040301100101000000001EXT
026480969201605223293008050301100152000000001EXT
027188447201605223293008060301100152000000001EXT
022687151201605223565008070301100152000000001EXT
027188447201605322250008080301100152000000001EXT
026480969201605322425008090301100152000000001EXT
022687151201605223293008100307010015000000001EXT
022687151201605223293008110307020070000000001EXT
022687151201605223293008120307030059000000001EXT
026480969201605322425008130307030059000000001EXT
022687178201605223565008140401010023000000001EXT
022687208201605322250008150401010023000000001EXT
026480969201605223293008160414020383000000001EXT
022687151201605322425008170101020058000000002EXT
022687151201605223293008180101020074000000002EXT
027188447201605223293008190101020082000000002EXT
027188447201605223565008200101040024000000002EXT
022687151201605322245009010101040024000000002EXT
023006069201605322245009020214010015000000002EXT
022687151201605223293009030301010030000000002EXT
022687151201605223565009040301010030000000002EXT
022687151201605223565009050301010030018000002EXT
022687151201605223565009060301010030023000002EXT
022687151201605223565009070301010030024000002EXT
022687151201605223565009080301010030031000002EXT
022687151201605223565009090301010030045000002EXT
022687151201605223565009100301010030048000002EXT
022687151201605223565009110301010030058000002EXT
022687151201605223565009120301010030062000002EXT
022687151201605223565009130301010030072000002EXT
022821958201605225142009140301010064004000002EXT
022821958201605225142009150301010064013000002EXT
027188447201605225142009160301010064014000002EXT
022821958201605225142009170301010064017000002EXT
027188447201605225142009180301010064021000002EXT
022821958201605225142009190301010064026000002EXT
027188447201605225142009200301010064026000002EXT
022821958201605225142010010301010064030000002EXT
027188447201605225142010020301010064030000002EXT
027188447201605225142010030301010064035000002EXT
022821958201605225142010040301010064040000002EXT
022821958201605225142010050301010064042000002EXT
027188447201605225142010060301010064043000002EXT
027188447201605225142010070301010064044000002EXT
022821958201605225142010080301010064048000002EXT
022821958201605225142010090301010064049000002EXT
022821958201605225142010100301010064050000002EXT
022821958201605225142010110301010064051000002EXT
022821958201605225142010120301010064052000002EXT
022821958201605225142010130301010064056000002EXT
027188447201605225142010140301010064057000002EXT
027188447201605225142010150301010064063000002EXT
027188447201605225142010160301010064073000002EXT
027188447201605225142010170301010064075000002EXT
022821958201605225142010180301010064078000002EXT
027188447201605225142010190301010064081000002EXT
022687259201605223565010200301010080001000002EXT
022821958201605223565011010301010080001000002EXT
022687259201605225142011020301010080000000002EXT
022821958201605225142011030301010080000000002EXT
027188447201605225142011040301010110017000002EXT
027188447201605225142011050301010110018000002EXT
027188447201605225142011060301010110020000002EXT
022687151201605225142011070301010110027000002EXT
027188447201605223293011080301010153002000002EXT
027188447201605223293011090301010153013000002EXT
027188447201605223293011100301010153015000002EXT
027188447201605223293011110301010153022000002EXT
027188447201605223293011120301010153030000002EXT
022687186201605223565011130301100039000000002EXT
022687259201605322245011140301100152000000002EXT
022687259201605322250011150301100152000000002EXT
026480969201605223293011160307010015000000002EXT
027188447201605223293011170307010015000000002EXT
026480969201605223293011180307030016000000002EXT
026480969201605223293011190307030024000000002EXT
022687259201605322245011200401010023000000002EXT
022687178201605322250012010401010023000000002EXT
022687151201605322250012020101030010000000003EXT
022687151201605223565012030301010030025000003EXT
022687151201605223565012040301010030027000003EXT
022687151201605223565012050301010030051000003EXT
022687151201605223565012060301010030057000003EXT
022821958201605225142012070301010064001000003EXT
022821958201605225142012080301010064005000003EXT
027188447201605225142012090301010064009000003EXT
027188447201605225142012100301010064011000003EXT
027188447201605225142012110301010064012000003EXT
027188447201605225142012120301010064017000003EXT
022821958201605225142012130301010064018000003EXT
027188447201605225142012140301010064023000003EXT
022821958201605225142012150301010064024000003EXT
027188447201605225142012160301010064025000003EXT
022821958201605225142012170301010064028000003EXT
027188447201605225142012180301010064031000003EXT
027188447201605225142012190301010064033000003EXT
027188447201605225142012200301010064038000003EXT
022821958201605225142013010301010064039000003EXT
022821958201605225142013020301010064041000003EXT
027188447201605225142013030301010064042000003EXT
027188447201605225142013040301010064050000003EXT
027188447201605225142013050301010064060000003EXT
027188447201605225142013060301010064066000003EXT
022821958201605225142013070301010064068000003EXT
027188447201605225142013080301010064069000003EXT
022687186201605223565013090301010080001000003EXT
027188447201605223565013100301010080001000003EXT
022687151201605223565013110301010080002000003EXT
023006069201605223565013120301010080002000003EXT
027188447201605223565013130301010080002000003EXT
022687151201605225142013140301010080000000003EXT
027188447201605223293013150301010153012000003EXT
022687151201605223565013160301050139000000003EXT
022687259201605322250013170301100020000000003EXT
027188447201605223565013180301100039000000003EXT
027188447201605322250013190301100101000000003EXT
022687151201605322245013200301100152000000003EXT
022687151201605322250014010301100152000000003EXT
026480969201605223293014020307020070000000003EXT
026480969201605322425014030307030016000000003EXT
022687151201605322245014040401010023000000003EXT
022687259201605322250014050401010023000000003EXT
022687151201605223293014060414020120000000003EXT
022687151201605223293014070101020090000000004EXT
022687151201605223565014080101040024000000004EXT
022687151201605223565014090301010030026000004EXT
022821958201605225142014100301010064000000004EXT
027188447201605225142014110301010064004000004EXT
027188447201605225142014120301010064022000004EXT
027188447201605225142014130301010064029000004EXT
027188447201605225142014140301010064034000004EXT
027188447201605225142014150301010064036000004EXT
027188447201605225142014160301010064041000004EXT
022821958201605225142014170301010064047000004EXT
027188447201605225142014180301010064048000004EXT
027188447201605225142014190301010064052000004EXT
027188447201605225142014200301010064053000004EXT
027188447201605225142015010301010064055000004EXT
027188447201605225142015020301010064058000004EXT
027188447201605225142015030301010064061000004EXT
027188447201605225142015040301010064079000004EXT
022687186201605223565015050301010080000000004EXT
023006069201605223565015060301010080000000004EXT
027188447201605223293015070301010153000000004EXT
027188447201605223293015080307030016000000004EXT
027188447201605223293015090307030024000000004EXT
027188447201605322250015100401010023000000004EXT
027188447201605223293015110414020120000000004EXT
026480969201605223293015120101020090000000005EXT
022687151201605223565015130301010030035000005EXT
027188447201605225142015140301010064019000005EXT
027188447201605225142015150301010064024000005EXT
027188447201605225142015160301010064027000005EXT
027188447201605225142015170301010064032000005EXT
027188447201605225142015180301010064037000005EXT
027188447201605225142015190301010064039000005EXT
027188447201605225142015200301010064047000005EXT
022687259201605223565016010301010080000000005EXT
022687151201605225142016020301010110025000005EXT
022687151201605223293016030307010040000000005EXT
022687151201605223293016040414020138000000005EXT
027188447201605223293016050101020090000000006EXT
027188447201605322245016060214010015000000006EXT
027188447201605225142016070301010064002000006EXT
027188447201605225142016080301010064005000006EXT
027188447201605225142016090301010064046000006EXT
027188447201605225142016100301010064056000006EXT
022687151201605223565016110301010080001000006EXT
022821958201605223565016120301010080002000006EXT
027188447201605225142016130301010080000000006EXT
027188447201605223565016140301050147000000006EXT
023006069201605322250016150301100101000000006EXT
027188447201605223293016160307020010000000006EXT
026480969201605223293016170101020082000000007EXT
027188447201605225142016180301010064010000007EXT
027188447201605225142016190301010064015000007EXT
027188447201605225142016200301010064018000007EXT
027188447201605225142017010301010064045000007EXT
022821958201605223565017020301010080000000007EXT
022687151201605223293017030301100039000000007EXT
022687151201605322250017040301100101000000007EXT
022687151201605223293017050307020010000000007EXT
027188447201605223293017060101020058000000008EXT
026480969201605322425017070101020074000000008EXT
022687178201605223565017080201020033000000008EXT
027188447201605225142017090301010064003000008EXT
027188447201605225142017100301010064006000008EXT
027188447201605225142017110301010064016000008EXT
027188447201605225142017120301010064040000008EXT
023006069201605322250017130301100020000000008EXT
022687151201605223565017140301100039000000008EXT
022687151201605223293017150307030016000000008EXT
026480969201605223293017160307030059000000008EXT
023006069201605322245017170401010023000000008EXT
022687151201605322250017180401010023000000008EXT
026480969201605322425017190101020082000000009EXT
027188447201605225142017200301010064049000009EXT
022687151201605223565018010301050147000000009EXT
027188447201605322245018020401010023000000009EXT
022687259201605223565018030201020033000000010EXT
027188447201605225142018040301010064001000010EXT
027188447201605225142018050301010064007000010EXT
022687151201605223565018060301010080000000010EXT
022687208201605322250018070301100039000000010EXT
027188447201605322245018080301100101000000010EXT
026480969201605223293018090307030040000000010EXT
022687259201605515105018100101030010000000011EXT
027188447201605225142018110301010064000000011EXT
023006069201605322245018120301100101000000011EXT
026480969201605223293018130307020010000000011EXT
026480969201605223293018140101020066000000012EXT
027188447201605223293018150307010031000000012EXT
026480969201605223293018160414020120000000012EXT
026480969201605223293018170414020138000000013EXT
027188447201605322245018180101030010000000014EXT
023006069201605322245018190301100020000000015EXT
026480969201605223293018200307020029000000015EXT
022687151201605223293019010101020066000000017EXT
022687259201605322245019020301100020000000017EXT
022687151201605322425019030101020015000000018EXT
026480969201605223293019040101020074000000018EXT
027188447201605223293019050307020029000000018EXT
023006069201605223565019060201020033000000019EXT
022687151201605322245019070301100020000000019EXT
022687151201605223293019080307010023000000019EXT
027188447201605223565019090201020033000000021EXT
027188447201605223565019100301010080000000021EXT
027188447201605223293019110414020138000000021EXT
027188447201605322250019120301100020000000022EXT
026480969201605223293019130307010031000000024EXT
022687178201605515105019140101030010000000027EXT
022687151201605322245019150301100039000000027EXT
023006069201605322250019160301100039000000027EXT
027188447201605322245019170301100020000000028EXT
023006069201605322245019180301100039000000031EXT
022687151201605223565019190201020033000000033EXT
027188447201605223293019200307010023000000033EXT
022687151201605322425020010101020074000000034EXT
027188447201605223293020020101020074000000035EXT
022687208201605515105020030101030010000000035EXT
027188447201605223293020040307010040000000037EXT
022687259201605322250020050301100039000000039EXT
026480969201605223293020060307010040000000040EXT
026480969201605223293020070307010023000000044EXT
027188447201605322250020080301100039000000045EXT
022687151201605322250020090301100020000000052EXT
027188447201605322245020100301100039000000059EXT
022687232201605515105020110101030010000000076EXT
022687151201605322425020120101020023000000080EXT
022687151201605322250020130301100039000000080EXT
022687151201605322425020140101020031000000081EXT
022687186201605322245020150301100039000000099EXT
022821958201605515105020160101030010000000115EXT
022687259201605322245020170301100039000000142EXT
023006069201605515105020180101030010000000143EXT
022687151201605322430020190101020023000000427EXT
022687151201605322430020200101020031000000427EXT
027188447201605515105021010101030010000000518EXT
022687151201605515105021020101030010000000594EXT
03300606920160598001628112372222356520160502001010214010090165486503960007F411070    02200000101             EXTVANESSA DE SOUZA MACHADO      1994040701    010                  7617982900016584130000081AMIM BACILA                   b         117  NUCLE                                             
03718844720160521026031542000422356520160502001020214010082200523934230006F411770    02200000116             EXTMISLAINE RIBAS MAIA           1994050501    010                  7617982900016584130000081NACIM BACILA NETO             CASA A    42   BELA                                              
03718844720160521026031542000422356520160502001030214010090200523934230006F411770    02200000116             EXTMISLAINE RIBAS MAIA           1994050501    010                  7617982900016584130000081NACIM BACILA NETO             CASA A    42   BELA                                              
03268725920160570650831883709522356520160502001040214010090701208011028619F411770    03500000116             EXTELISANGELA FERREIRA           1980061901    010              00057617982900016584130000021POCO GRANDE                             0    ZONA                                              
03718844720160521026031542000422356520160509001050214010090898003351214415F411770    02600000116             EXTROSANA COVALSKI IACHINSKI     1989082001    010                  7617982900016584130000081ANTONIO VICTORIO  VIANNA                0    BELA                                              
03718844720160521026031542000422356520160516001060214010082203119522020008F410690    02500000116             EXTCAROLINE FERRAZ               1990091201    010                  7617982900016584130000081HENRIQUE STADLER              casa      4    VILA                                              
03718844720160521026031542000422356520160516001070214010090203119522020008F410690    02500000116             EXTCAROLINE FERRAZ               1990091201    010                  7617982900016584130000081HENRIQUE STADLER              casa      4    VILA                                              
