01#BPA#2018030000000000011111SECRETARIA DE SAUDE DE CORUMBATAI DO SULM4.9.13.1  
022731762201803225124001010301010064013000001EXT
022731762201803322250001020301100152000000001EXT
022731762201803223565001030401010023000000002EXT
022731762201803225124001040301010064002000006EXT
022731762201803322250001050101030010000000004EXT
022731762201803225124001060301010064011000001EXT
022731762201803225142001070401010023000000003EXT
022731762201803225124001080301010064007000002EXT
022731762201803322250001090401010023000000117EXT
022731762201803322250001100214010015000000024EXT
022731762201803223565001110301100020000000042EXT
022731762201803225125001120401010031000000001EXT
022731762201803322230001130214010015000000033EXT
022731762201803322250001140301100039000000029EXT
022731762201803515105001150101030010000000866EXT
022731762201803223505001160214010015000000005EXT
022731762201803223505001170201020033000000009EXT
022731762201803223505001180301100039000000012EXT
022731762201803223565001190301100101000000001EXT
022731762201803322230001200301100020000000157EXT
022731762201803322250002010201020041000000001EXT
022731762201803225142002020301050147000000001EXT
022731762201803225124002030301010064006000001EXT
022731762201803225124002040301010064000000016EXT
022731762201803223505002050401010023000000003EXT
022731762201803225124002060301010064008000001EXT
022731762201803223565002070214010015000000007EXT
022731762201803225125002080401010066000000001EXT
022731762201803223505002090301100020000000075EXT
022731762201803223565002100301100039000000011EXT
022731762201803225124002110301010064001000008EXT
022731762201803225124002120301010064004000004EXT
022731762201803322250002130301100020000000012EXT
022731762201803225124002140301010064003000005EXT
022731762201803225125002150401010023000000001EXT
022731762201803223565002160301100152000000002EXT
022731762201803223505002170301100101000000002EXT
022731762201803322230002180301100039000000053EXT
022731762201803225124002190301010064009000001EXT
03273176220180398001628829644422356520180308001010214010090707800698559910F410655    04600000100             EXTELIANE MORAIS RIBEIRO DA SILVA1971080203    010                  8088866200018986970000081CHINGU                                  0    CENTRO                                                                           
